{
  "contractName": "Provenance",
  "abi": [
    {
      "inputs": [],
      "payable": false,
      "stateMutability": "nonpayable",
      "type": "constructor"
    },
    {
      "constant": false,
      "inputs": [
        {
          "internalType": "string",
          "name": "_name",
          "type": "string"
        },
        {
          "internalType": "uint256",
          "name": "_phoneNo",
          "type": "uint256"
        },
        {
          "internalType": "string",
          "name": "_cityState",
          "type": "string"
        },
        {
          "internalType": "string",
          "name": "_country",
          "type": "string"
        }
      ],
      "name": "addProducer",
      "outputs": [
        {
          "internalType": "bool",
          "name": "success",
          "type": "bool"
        }
      ],
      "payable": false,
      "stateMutability": "nonpayable",
      "type": "function"
    },
    {
      "constant": false,
      "inputs": [
        {
          "internalType": "address",
          "name": "_producer",
          "type": "address"
        }
      ],
      "name": "removeProducer",
      "outputs": [],
      "payable": false,
      "stateMutability": "nonpayable",
      "type": "function"
    },
    {
      "constant": true,
      "inputs": [
        {
          "internalType": "address",
          "name": "_producer",
          "type": "address"
        }
      ],
      "name": "findProducer",
      "outputs": [
        {
          "internalType": "address",
          "name": "",
          "type": "address"
        },
        {
          "internalType": "string",
          "name": "",
          "type": "string"
        },
        {
          "internalType": "uint256",
          "name": "",
          "type": "uint256"
        },
        {
          "internalType": "string",
          "name": "",
          "type": "string"
        },
        {
          "internalType": "string",
          "name": "",
          "type": "string"
        },
        {
          "internalType": "bool",
          "name": "",
          "type": "bool"
        }
      ],
      "payable": false,
      "stateMutability": "view",
      "type": "function"
    },
    {
      "constant": true,
      "inputs": [],
      "name": "allProducers",
      "outputs": [
        {
          "internalType": "address[]",
          "name": "",
          "type": "address[]"
        }
      ],
      "payable": false,
      "stateMutability": "view",
      "type": "function"
    },
    {
      "constant": false,
      "inputs": [
        {
          "internalType": "address",
          "name": "_producer",
          "type": "address"
        }
      ],
      "name": "certifyProducer",
      "outputs": [
        {
          "internalType": "bool",
          "name": "success",
          "type": "bool"
        }
      ],
      "payable": false,
      "stateMutability": "nonpayable",
      "type": "function"
    },
    {
      "constant": false,
      "inputs": [
        {
          "internalType": "string",
          "name": "serialNo",
          "type": "string"
        },
        {
          "internalType": "string",
          "name": "name",
          "type": "string"
        },
        {
          "internalType": "uint256[]",
          "name": "_locationData",
          "type": "uint256[]"
        }
      ],
      "name": "addProduct",
      "outputs": [],
      "payable": false,
      "stateMutability": "nonpayable",
      "type": "function"
    },
    {
      "constant": false,
      "inputs": [
        {
          "internalType": "string",
          "name": "serialNo",
          "type": "string"
        }
      ],
      "name": "removeProduct",
      "outputs": [
        {
          "internalType": "bool",
          "name": "success",
          "type": "bool"
        }
      ],
      "payable": false,
      "stateMutability": "nonpayable",
      "type": "function"
    },
    {
      "constant": true,
      "inputs": [
        {
          "internalType": "string",
          "name": "serialNo",
          "type": "string"
        }
      ],
      "name": "findProduct",
      "outputs": [
        {
          "internalType": "address",
          "name": "",
          "type": "address"
        },
        {
          "internalType": "string",
          "name": "",
          "type": "string"
        },
        {
          "internalType": "string",
          "name": "",
          "type": "string"
        },
        {
          "internalType": "uint256[]",
          "name": "",
          "type": "uint256[]"
        },
        {
          "internalType": "uint256",
          "name": "",
          "type": "uint256"
        }
      ],
      "payable": false,
      "stateMutability": "view",
      "type": "function"
    },
    {
      "constant": true,
      "inputs": [],
      "name": "allProducts",
      "outputs": [
        {
          "internalType": "string[]",
          "name": "",
          "type": "string[]"
        }
      ],
      "payable": false,
      "stateMutability": "view",
      "type": "function"
    }
  ],
  "bytecode": "0x608060405234801561001057600080fd5b50336000806101000a81548173ffffffffffffffffffffffffffffffffffffffff021916908373ffffffffffffffffffffffffffffffffffffffff1602179055506122f1806100606000396000f3fe608060405234801561001057600080fd5b50600436106100935760003560e01c80639726dd19116100665780639726dd1914610120578063a5bfd7c914610150578063c7a69e0b14610180578063d09174db146101b5578063e2d5d322146101d157610093565b806332ff5bb4146100985780633f185b6c146100b657806353efc828146100d25780639129524114610102575b600080fd5b6100a0610205565b6040516100ad9190611f77565b60405180910390f35b6100d060048036036100cb919081019061185c565b610293565b005b6100ec60048036036100e7919081019061185c565b610536565b6040516100f99190611fbb565b60405180910390f35b61010a61062a565b6040516101179190611f99565b60405180910390f35b61013a60048036036101359190810190611885565b610713565b6040516101479190611fbb565b60405180910390f35b61016a6004803603610165919081019061195d565b610929565b6040516101779190611fbb565b60405180910390f35b61019a6004803603610195919081019061185c565b610bea565b6040516101ac96959493929190611f01565b60405180910390f35b6101cf60048036036101ca91908101906118c6565b6110e2565b005b6101eb60048036036101e69190810190611885565b61130c565b6040516101fc959493929190611e99565b60405180910390f35b6060600380548060200260200160405190810160405280929190818152602001828054801561028957602002820191906000526020600020905b8160009054906101000a900473ffffffffffffffffffffffffffffffffffffffff1673ffffffffffffffffffffffffffffffffffffffff168152602001906001019080831161023f575b5050505050905090565b6000809054906101000a900473ffffffffffffffffffffffffffffffffffffffff1673ffffffffffffffffffffffffffffffffffffffff163373ffffffffffffffffffffffffffffffffffffffff1614610322576040517f08c379a000000000000000000000000000000000000000000000000000000000815260040161031990612016565b60405180910390fd5b600160008273ffffffffffffffffffffffffffffffffffffffff1673ffffffffffffffffffffffffffffffffffffffff168152602001908152602001600020600080820160006103729190611579565b600182016000905560028201600061038a9190611579565b60038201600061039a9190611579565b6004820160006101000a81549060ff0219169055505060008090505b600380549050811015610532578173ffffffffffffffffffffffffffffffffffffffff16600382815481106103e757fe5b9060005260206000200160009054906101000a900473ffffffffffffffffffffffffffffffffffffffff1673ffffffffffffffffffffffffffffffffffffffff1614156105255760008190505b6001600380549050038110156104e1576003600182018154811061045457fe5b9060005260206000200160009054906101000a900473ffffffffffffffffffffffffffffffffffffffff166003828154811061048c57fe5b9060005260206000200160006101000a81548173ffffffffffffffffffffffffffffffffffffffff021916908373ffffffffffffffffffffffffffffffffffffffff1602179055508080600101915050610434565b506003600160038054905003815481106104f757fe5b9060005260206000200160006101000a81549073ffffffffffffffffffffffffffffffffffffffff02191690555b80806001019150506103b6565b5050565b60008060009054906101000a900473ffffffffffffffffffffffffffffffffffffffff1673ffffffffffffffffffffffffffffffffffffffff163373ffffffffffffffffffffffffffffffffffffffff16146105c7576040517f08c379a00000000000000000000000000000000000000000000000000000000081526004016105be90612016565b60405180910390fd5b60018060008473ffffffffffffffffffffffffffffffffffffffff1673ffffffffffffffffffffffffffffffffffffffff16815260200190815260200160002060040160006101000a81548160ff02191690831515021790555060019050919050565b60606004805480602002602001604051908101604052809291908181526020016000905b8282101561070a578382906000526020600020018054600181600116156101000203166002900480601f0160208091040260200160405190810160405280929190818152602001828054600181600116156101000203166002900480156106f65780601f106106cb576101008083540402835291602001916106f6565b820191906000526020600020905b8154815290600101906020018083116106d957829003601f168201915b50505050508152602001906001019061064e565b50505050905090565b60008060009054906101000a900473ffffffffffffffffffffffffffffffffffffffff1673ffffffffffffffffffffffffffffffffffffffff163373ffffffffffffffffffffffffffffffffffffffff16146107a4576040517f08c379a000000000000000000000000000000000000000000000000000000000815260040161079b90612016565b60405180910390fd5b6002826040516107b49190611e82565b9081526020016040518091039020600080820160006107d39190611579565b6001820160006107e39190611579565b6002820160006101000a81549073ffffffffffffffffffffffffffffffffffffffff021916905560038201600061081a91906115c1565b6004820160009055505060008090505b60048054905081101561091f5782805190602001206004828154811061084c57fe5b906000526020600020016040516108639190611e6b565b604051809103902014156109125760008190505b6001600480549050038110156108e5576004600182018154811061089757fe5b90600052602060002001600482815481106108ae57fe5b9060005260206000200190805460018160011615610100020316600290046108d79291906115e2565b508080600101915050610877565b506004600160048054905003815481106108fb57fe5b9060005260206000200160006109119190611579565b5b808060010191505061082a565b5060019050919050565b600080600160003373ffffffffffffffffffffffffffffffffffffffff1673ffffffffffffffffffffffffffffffffffffffff16815260200190815260200160002060000180546001816001161561010002031660029004905014801561099257506000855114155b6109d1576040517f08c379a00000000000000000000000000000000000000000000000000000000081526004016109c890611ff6565b60405180910390fd5b84600160003373ffffffffffffffffffffffffffffffffffffffff1673ffffffffffffffffffffffffffffffffffffffff1681526020019081526020016000206000019080519060200190610a27929190611669565b5083600160003373ffffffffffffffffffffffffffffffffffffffff1673ffffffffffffffffffffffffffffffffffffffff1681526020019081526020016000206001018190555082600160003373ffffffffffffffffffffffffffffffffffffffff1673ffffffffffffffffffffffffffffffffffffffff1681526020019081526020016000206002019080519060200190610ac5929190611669565b5081600160003373ffffffffffffffffffffffffffffffffffffffff1673ffffffffffffffffffffffffffffffffffffffff1681526020019081526020016000206003019080519060200190610b1c929190611669565b506000600160003373ffffffffffffffffffffffffffffffffffffffff1673ffffffffffffffffffffffffffffffffffffffff16815260200190815260200160002060040160006101000a81548160ff02191690831515021790555060033390806001815401808255809150509060018203906000526020600020016000909192909190916101000a81548173ffffffffffffffffffffffffffffffffffffffff021916908373ffffffffffffffffffffffffffffffffffffffff1602179055505060019050949350505050565b600060606000606080600080600160008973ffffffffffffffffffffffffffffffffffffffff1673ffffffffffffffffffffffffffffffffffffffff1681526020019081526020016000206000018054600181600116156101000203166002900490501180610c9c57506000600160008973ffffffffffffffffffffffffffffffffffffffff1673ffffffffffffffffffffffffffffffffffffffff1681526020019081526020016000206001015414155b80610cfe57506000600160008973ffffffffffffffffffffffffffffffffffffffff1673ffffffffffffffffffffffffffffffffffffffff16815260200190815260200160002060020180546001816001161561010002031660029004905014155b80610d6057506000600160008973ffffffffffffffffffffffffffffffffffffffff1673ffffffffffffffffffffffffffffffffffffffff16815260200190815260200160002060030180546001816001161561010002031660029004905014155b610d9f576040517f08c379a0000000000000000000000000000000000000000000000000000000008152600401610d9690611fd6565b60405180910390fd5b86600160008973ffffffffffffffffffffffffffffffffffffffff1673ffffffffffffffffffffffffffffffffffffffff168152602001908152602001600020600001600160008a73ffffffffffffffffffffffffffffffffffffffff1673ffffffffffffffffffffffffffffffffffffffff16815260200190815260200160002060010154600160008b73ffffffffffffffffffffffffffffffffffffffff1673ffffffffffffffffffffffffffffffffffffffff168152602001908152602001600020600201600160008c73ffffffffffffffffffffffffffffffffffffffff1673ffffffffffffffffffffffffffffffffffffffff168152602001908152602001600020600301600160008d73ffffffffffffffffffffffffffffffffffffffff1673ffffffffffffffffffffffffffffffffffffffff16815260200190815260200160002060040160009054906101000a900460ff16848054600181600116156101000203166002900480601f016020809104026020016040519081016040528092919081815260200182805460018160011615610100020316600290048015610f8e5780601f10610f6357610100808354040283529160200191610f8e565b820191906000526020600020905b815481529060010190602001808311610f7157829003601f168201915b50505050509450828054600181600116156101000203166002900480601f01602080910402602001604051908101604052809291908181526020018280546001816001161561010002031660029004801561102a5780601f10610fff5761010080835404028352916020019161102a565b820191906000526020600020905b81548152906001019060200180831161100d57829003601f168201915b50505050509250818054600181600116156101000203166002900480601f0160208091040260200160405190810160405280929190818152602001828054600181600116156101000203166002900480156110c65780601f1061109b576101008083540402835291602001916110c6565b820191906000526020600020905b8154815290600101906020018083116110a957829003601f168201915b5050505050915095509550955095509550955091939550919395565b600073ffffffffffffffffffffffffffffffffffffffff1660028460405161110a9190611e82565b908152602001604051809103902060020160009054906101000a900473ffffffffffffffffffffffffffffffffffffffff1673ffffffffffffffffffffffffffffffffffffffff1614801561116157506000835114155b6111a0576040517f08c379a000000000000000000000000000000000000000000000000000000000815260040161119790612036565b60405180910390fd5b826002846040516111b19190611e82565b908152602001604051809103902060000190805190602001906111d5929190611669565b50816002846040516111e79190611e82565b9081526020016040518091039020600101908051906020019061120b929190611669565b503360028460405161121d9190611e82565b908152602001604051809103902060020160006101000a81548173ffffffffffffffffffffffffffffffffffffffff021916908373ffffffffffffffffffffffffffffffffffffffff1602179055508060028460405161127d9190611e82565b908152602001604051809103902060030190805190602001906112a19291906116e9565b50426002846040516112b39190611e82565b9081526020016040518091039020600401819055506004839080600181540180825580915050906001820390600052602060002001600090919290919091509080519060200190611305929190611669565b5050505050565b6000606080606060006002866040516113259190611e82565b908152602001604051809103902060020160009054906101000a900473ffffffffffffffffffffffffffffffffffffffff166002876040516113679190611e82565b90815260200160405180910390206000016002886040516113889190611e82565b90815260200160405180910390206001016002896040516113a99190611e82565b908152602001604051809103902060030160028a6040516113ca9190611e82565b908152602001604051809103902060040154838054600181600116156101000203166002900480601f0160208091040260200160405190810160405280929190818152602001828054600181600116156101000203166002900480156114715780601f1061144657610100808354040283529160200191611471565b820191906000526020600020905b81548152906001019060200180831161145457829003601f168201915b50505050509350828054600181600116156101000203166002900480601f01602080910402602001604051908101604052809291908181526020018280546001816001161561010002031660029004801561150d5780601f106114e25761010080835404028352916020019161150d565b820191906000526020600020905b8154815290600101906020018083116114f057829003601f168201915b505050505092508180548060200260200160405190810160405280929190818152602001828054801561155f57602002820191906000526020600020905b81548152602001906001019080831161154b575b505050505091509450945094509450945091939590929450565b50805460018160011615610100020316600290046000825580601f1061159f57506115be565b601f0160209004906000526020600020908101906115bd9190611736565b5b50565b50805460008255906000526020600020908101906115df9190611736565b50565b828054600181600116156101000203166002900490600052602060002090601f016020900481019282601f1061161b5780548555611658565b8280016001018555821561165857600052602060002091601f016020900482015b8281111561165757825482559160010191906001019061163c565b5b5090506116659190611736565b5090565b828054600181600116156101000203166002900490600052602060002090601f016020900481019282601f106116aa57805160ff19168380011785556116d8565b828001600101855582156116d8579182015b828111156116d75782518255916020019190600101906116bc565b5b5090506116e59190611736565b5090565b828054828255906000526020600020908101928215611725579160200282015b82811115611724578251825591602001919060010190611709565b5b5090506117329190611736565b5090565b61175891905b8082111561175457600081600090555060010161173c565b5090565b90565b60008135905061176a81612280565b92915050565b600082601f83011261178157600080fd5b813561179461178f82612083565b612056565b915081818352602084019350602081019050838560208402820111156117b957600080fd5b60005b838110156117e957816117cf8882611847565b8452602084019350602083019250506001810190506117bc565b5050505092915050565b600082601f83011261180457600080fd5b8135611817611812826120ab565b612056565b9150808252602083016020830185838301111561183357600080fd5b61183e83828461222d565b50505092915050565b60008135905061185681612297565b92915050565b60006020828403121561186e57600080fd5b600061187c8482850161175b565b91505092915050565b60006020828403121561189757600080fd5b600082013567ffffffffffffffff8111156118b157600080fd5b6118bd848285016117f3565b91505092915050565b6000806000606084860312156118db57600080fd5b600084013567ffffffffffffffff8111156118f557600080fd5b611901868287016117f3565b935050602084013567ffffffffffffffff81111561191e57600080fd5b61192a868287016117f3565b925050604084013567ffffffffffffffff81111561194757600080fd5b61195386828701611770565b9150509250925092565b6000806000806080858703121561197357600080fd5b600085013567ffffffffffffffff81111561198d57600080fd5b611999878288016117f3565b94505060206119aa87828801611847565b935050604085013567ffffffffffffffff8111156119c757600080fd5b6119d3878288016117f3565b925050606085013567ffffffffffffffff8111156119f057600080fd5b6119fc878288016117f3565b91505092959194509250565b6000611a148383611a4c565b60208301905092915050565b6000611a2c8383611ca2565b905092915050565b6000611a408383611e4d565b60208301905092915050565b611a55816121e5565b82525050565b611a64816121e5565b82525050565b6000611a758261211c565b611a7f818561217a565b9350611a8a836120d7565b8060005b83811015611abb578151611aa28882611a08565b9750611aad83612153565b925050600181019050611a8e565b5085935050505092915050565b6000611ad382612127565b611add818561218b565b935083602082028501611aef856120e7565b8060005b85811015611b2b5784840389528151611b0c8582611a20565b9450611b1783612160565b925060208a01995050600181019050611af3565b50829750879550505050505092915050565b6000611b4882612132565b611b52818561219c565b9350611b5d836120f7565b8060005b83811015611b8e578151611b758882611a34565b9750611b808361216d565b925050600181019050611b61565b5085935050505092915050565b611ba4816121f7565b82525050565b600081546001811660008114611bc75760018114611bec57611c30565b607f6002830416611bd881876121ad565b955060ff1983168652808601935050611c30565b60028204611bfa81876121ad565b9550611c0585612107565b60005b82811015611c2757815481890152600182019150602081019050611c08565b82880195505050505b505092915050565b6000611c4382612148565b611c4d81856121c9565b9350611c5d81856020860161223c565b611c668161226f565b840191505092915050565b6000611c7c82612148565b611c8681856121da565b9350611c9681856020860161223c565b80840191505092915050565b6000611cad8261213d565b611cb781856121b8565b9350611cc781856020860161223c565b611cd08161226f565b840191505092915050565b6000611ce86015836121c9565b91507f50726f647563657220646f656e277420657869737400000000000000000000006000830152602082019050919050565b6000611d286034836121c9565b91507f65697468657220656e74727920616c726561647920657869737473206f72206e60008301527f616d6520656e746572656420776173206e756c6c0000000000000000000000006020830152604082019050919050565b6000611d8e600d836121c9565b91507f4e6f74207468652061646d696e000000000000000000000000000000000000006000830152602082019050919050565b6000611dce6045836121c9565b91507f6569746865722073657269616c206e756d62657220616c726561647920696e2060008301527f757365206f722073657269616c206e756d62657220656e74657265642077617360208301527f206e756c6c0000000000000000000000000000000000000000000000000000006040830152606082019050919050565b611e5681612223565b82525050565b611e6581612223565b82525050565b6000611e778284611baa565b915081905092915050565b6000611e8e8284611c71565b915081905092915050565b600060a082019050611eae6000830188611a5b565b8181036020830152611ec08187611c38565b90508181036040830152611ed48186611c38565b90508181036060830152611ee88185611b3d565b9050611ef76080830184611e5c565b9695505050505050565b600060c082019050611f166000830189611a5b565b8181036020830152611f288188611c38565b9050611f376040830187611e5c565b8181036060830152611f498186611c38565b90508181036080830152611f5d8185611c38565b9050611f6c60a0830184611b9b565b979650505050505050565b60006020820190508181036000830152611f918184611a6a565b905092915050565b60006020820190508181036000830152611fb38184611ac8565b905092915050565b6000602082019050611fd06000830184611b9b565b92915050565b60006020820190508181036000830152611fef81611cdb565b9050919050565b6000602082019050818103600083015261200f81611d1b565b9050919050565b6000602082019050818103600083015261202f81611d81565b9050919050565b6000602082019050818103600083015261204f81611dc1565b9050919050565b6000604051905081810181811067ffffffffffffffff8211171561207957600080fd5b8060405250919050565b600067ffffffffffffffff82111561209a57600080fd5b602082029050602081019050919050565b600067ffffffffffffffff8211156120c257600080fd5b601f19601f8301169050602081019050919050565b6000819050602082019050919050565b6000819050602082019050919050565b6000819050602082019050919050565b60008190508160005260206000209050919050565b600081519050919050565b600081519050919050565b600081519050919050565b600081519050919050565b600081519050919050565b6000602082019050919050565b6000602082019050919050565b6000602082019050919050565b600082825260208201905092915050565b600082825260208201905092915050565b600082825260208201905092915050565b600081905092915050565b600082825260208201905092915050565b600082825260208201905092915050565b600081905092915050565b60006121f082612203565b9050919050565b60008115159050919050565b600073ffffffffffffffffffffffffffffffffffffffff82169050919050565b6000819050919050565b82818337600083830152505050565b60005b8381101561225a57808201518184015260208101905061223f565b83811115612269576000848401525b50505050565b6000601f19601f8301169050919050565b612289816121e5565b811461229457600080fd5b50565b6122a081612223565b81146122ab57600080fd5b5056fea365627a7a72315820850186916cc1ad313e601c7d94f40630962151d923542174aee5603b65ad3dc86c6578706572696d656e74616cf564736f6c63430005100040",
  "source": "\npragma solidity >=0.4.22 <0.9.0;\npragma experimental ABIEncoderV2;\n\ncontract Provenance {\n    address admin;\n    mapping (address => Producer) producers;\n    mapping (string => Product) products;\n    address[] producersByAddress; // Array of all producers' acconts\n    string[] productsBySerialNo;\n\n    struct Producer {\n        string name;\n        uint phoneNo;\n        string cityState;\n        string country;\n        bool certified;\n    }\n    struct Product {\n        string serial;\n        string name;\n        address producer;\n        uint[] locationData; // array containing lat & long\n        uint timeStamp;\n    }\n    // constructor - runs once when contract is deployed\n    constructor() public {\n        admin = msg.sender;\n    }\n    // modifier to allow only admin to execute a function\n    modifier onlyAdmin() {\n        require(msg.sender == admin, \"Not the admin\");\n        _;\n    }\n    // function for producer to add their details to database\n    function addProducer(string memory _name, uint _phoneNo, string memory _cityState, string memory _country) public returns (bool success)  {\n        // don't overwrite existing entries and ensure name isn't null\n        require (bytes(producers[msg.sender].name).length == 0 && bytes(_name).length != 0,\n                 \"either entry already exists or name entered was null\"); \n        producers[msg.sender].name = _name;\n        producers[msg.sender].phoneNo = _phoneNo;\n        producers[msg.sender].cityState = _cityState;\n        producers[msg.sender].country = _country;\n        producers[msg.sender].certified = false; \n        producersByAddress.push(msg.sender);\n        return true;\n    }\n    // function to remove producer from database (can only be done by dmin)\n    function removeProducer(address _producer) onlyAdmin public {\n        delete producers [_producer];\n        // dlete entry from array and shorten array\n        for (uint i = 0; i < producersByAddress.length; i++) {\n            if (producersByAddress[i] == _producer) {\n                for (uint index = i; index < producersByAddress.length - 1; index++) {\n                    producersByAddress[index] =\n                    producersByAddress[index + 1];\n                }\n                delete producersByAddress[producersByAddress.length - 1];\n\n            }\n        }\n    }\n    // function to display details of producer\n    function findProducer(address _producer) public view returns (address, string memory, uint, string memory, string memory, bool) {\n        require(\n                bytes(producers[_producer].name).length > 0 || producers[_producer].phoneNo != 0 ||\n                bytes(producers[_producer].cityState).length != 0 || bytes(producers[_producer].country).length != 0,\n                \"Producer doen't exist\"\n                );\n        return (\n            _producer,\n            producers[_producer].name, \n            producers[_producer].phoneNo, producers[_producer].cityState,\n            producers[_producer].country, producers[_producer].certified\n            );\n    }\n    // function to display all producers' accounts in database\n    function allProducers() public view returns (address[] memory) {\n        return producersByAddress;\n    }\n    // function to certify producer as legitimate (can only be done by admin)\n    function certifyProducer(address _producer) onlyAdmin public returns (bool success) {\n        producers [_producer] .certified = true;\n        return true;\n    }\n    // function for producer to add their product to database\n    function addProduct(string memory serialNo, string memory name, uint[] memory _locationData) public {\n        // ensure no duplicate serial numbers and serial number isn't null\n        require(products[serialNo].producer == address(0) && bytes(serialNo).length != 0, \n            \"either serial number already in use or serial number entered was null\");\n        products[serialNo].serial = serialNo;\n        products[serialNo].name = name;  \n        products [serialNo].producer = msg.sender;\n        products[serialNo].locationData = _locationData;\n        products[serialNo].timeStamp = block.timestamp;\n        productsBySerialNo.push(serialNo);\n    }\n    // function to remove product from database (can only be done by admin)\n    function removeProduct(string memory serialNo) onlyAdmin public returns (bool success) {\n        delete products [serialNo];\n        // delete entry from array and shorten array\n        for (uint i = 0; i < productsBySerialNo.length; i++) {\n            //keccak256(portcheck) == keccak256(\"signed\")\n            if (keccak256(bytes(productsBySerialNo[i])) == keccak256(bytes(serialNo))) {\n                for (uint index = i; index < productsBySerialNo.length - 1; index++) {\n                    productsBySerialNo[index] =\n                    productsBySerialNo[index + 1];\n                }\n                delete productsBySerialNo[productsBySerialNo.length - 1];\n                \n            }\n        }\n        return true;\n    }\n    // function to display details of product\n    function findProduct(string memory serialNo) public view returns (address, string memory, string memory, uint[] memory, uint) {\n        return (products[serialNo].producer, products[serialNo].serial, products[serialNo].name, products[serialNo].locationData, products[serialNo].timeStamp);\n    }\n    // function to displays all products\n    function allProducts() public view returns (string[] memory) {\n        return productsBySerialNo;\n    }\n}\n\n\n\n\n\n\n\n\n",
  "sourcePath": "/home/toor/projets/Blockchain/Blockchain_Supply_chain_management/contracts/Provenance.sol",
  "compiler": {
    "name": "solc",
    "version": "0.5.16+commit.9c3226ce.Emscripten.clang"
  },
  "schemaVersion": "3.4.6",
  "updatedAt": "2022-07-07T19:16:32.810Z",
  "networkType": "ethereum",
  "devdoc": {
    "methods": {}
  },
  "userdoc": {
    "methods": {}
  }
}