{
  "contractName": "Tracking",
  "abi": [
    {
      "inputs": [],
      "payable": false,
      "stateMutability": "nonpayable",
      "type": "constructor"
    },
    {
      "anonymous": false,
      "inputs": [
        {
          "indexed": false,
          "internalType": "string",
          "name": "_message",
          "type": "string"
        }
      ],
      "name": "Failure",
      "type": "event"
    },
    {
      "anonymous": false,
      "inputs": [
        {
          "indexed": false,
          "internalType": "string",
          "name": "_message",
          "type": "string"
        },
        {
          "indexed": false,
          "internalType": "address",
          "name": "_from",
          "type": "address"
        },
        {
          "indexed": false,
          "internalType": "address",
          "name": "_to",
          "type": "address"
        },
        {
          "indexed": false,
          "internalType": "uint256",
          "name": "_amount",
          "type": "uint256"
        }
      ],
      "name": "Payment",
      "type": "event"
    },
    {
      "anonymous": false,
      "inputs": [
        {
          "indexed": false,
          "internalType": "string",
          "name": "_message",
          "type": "string"
        },
        {
          "indexed": false,
          "internalType": "string",
          "name": "trackingNo",
          "type": "string"
        },
        {
          "indexed": false,
          "internalType": "uint256[]",
          "name": "_locationData",
          "type": "uint256[]"
        },
        {
          "indexed": false,
          "internalType": "uint256",
          "name": "_timeStamp",
          "type": "uint256"
        },
        {
          "indexed": false,
          "internalType": "address",
          "name": "_sender",
          "type": "address"
        }
      ],
      "name": "Success",
      "type": "event"
    },
    {
      "constant": false,
      "inputs": [
        {
          "internalType": "address",
          "name": "_to",
          "type": "address"
        },
        {
          "internalType": "uint256",
          "name": "_amount",
          "type": "uint256"
        }
      ],
      "name": "sendToken",
      "outputs": [
        {
          "internalType": "bool",
          "name": "success",
          "type": "bool"
        }
      ],
      "payable": false,
      "stateMutability": "nonpayable",
      "type": "function"
    },
    {
      "constant": true,
      "inputs": [
        {
          "internalType": "address",
          "name": "_account",
          "type": "address"
        }
      ],
      "name": "getBalance",
      "outputs": [
        {
          "internalType": "uint256",
          "name": "_balance",
          "type": "uint256"
        }
      ],
      "payable": false,
      "stateMutability": "view",
      "type": "function"
    },
    {
      "constant": false,
      "inputs": [
        {
          "internalType": "address",
          "name": "_from",
          "type": "address"
        },
        {
          "internalType": "uint256",
          "name": "_amount",
          "type": "uint256"
        }
      ],
      "name": "recoverToken",
      "outputs": [
        {
          "internalType": "bool",
          "name": "success",
          "type": "bool"
        }
      ],
      "payable": false,
      "stateMutability": "nonpayable",
      "type": "function"
    },
    {
      "constant": false,
      "inputs": [
        {
          "internalType": "uint256[]",
          "name": "_location",
          "type": "uint256[]"
        },
        {
          "internalType": "uint256",
          "name": "_leadTime",
          "type": "uint256"
        },
        {
          "internalType": "uint256",
          "name": "_payment",
          "type": "uint256"
        }
      ],
      "name": "setContractParameters",
      "outputs": [
        {
          "internalType": "bool",
          "name": "success",
          "type": "bool"
        }
      ],
      "payable": false,
      "stateMutability": "nonpayable",
      "type": "function"
    },
    {
      "constant": false,
      "inputs": [
        {
          "internalType": "string",
          "name": "trackingNo",
          "type": "string"
        },
        {
          "internalType": "string",
          "name": "_item",
          "type": "string"
        },
        {
          "internalType": "uint256",
          "name": "_quantity",
          "type": "uint256"
        },
        {
          "internalType": "uint256[]",
          "name": "_locationData",
          "type": "uint256[]"
        }
      ],
      "name": "sendShipment",
      "outputs": [
        {
          "internalType": "bool",
          "name": "success",
          "type": "bool"
        }
      ],
      "payable": false,
      "stateMutability": "nonpayable",
      "type": "function"
    },
    {
      "constant": false,
      "inputs": [
        {
          "internalType": "string",
          "name": "trackingNo",
          "type": "string"
        },
        {
          "internalType": "string",
          "name": "_item",
          "type": "string"
        },
        {
          "internalType": "uint256",
          "name": "_quantity",
          "type": "uint256"
        },
        {
          "internalType": "uint256[]",
          "name": "_locationData",
          "type": "uint256[]"
        }
      ],
      "name": "receiveShipment",
      "outputs": [
        {
          "internalType": "bool",
          "name": "success",
          "type": "bool"
        }
      ],
      "payable": false,
      "stateMutability": "nonpayable",
      "type": "function"
    },
    {
      "constant": false,
      "inputs": [
        {
          "internalType": "string",
          "name": "trackingNo",
          "type": "string"
        }
      ],
      "name": "deleteShipment",
      "outputs": [
        {
          "internalType": "bool",
          "name": "success",
          "type": "bool"
        }
      ],
      "payable": false,
      "stateMutability": "nonpayable",
      "type": "function"
    },
    {
      "constant": true,
      "inputs": [],
      "name": "allShipment",
      "outputs": [
        {
          "internalType": "string[]",
          "name": "",
          "type": "string[]"
        }
      ],
      "payable": false,
      "stateMutability": "view",
      "type": "function"
    },
    {
      "constant": true,
      "inputs": [
        {
          "internalType": "string",
          "name": "trackingNo",
          "type": "string"
        }
      ],
      "name": "checkShipment",
      "outputs": [
        {
          "internalType": "string",
          "name": "",
          "type": "string"
        },
        {
          "internalType": "uint256",
          "name": "",
          "type": "uint256"
        },
        {
          "internalType": "uint256[]",
          "name": "",
          "type": "uint256[]"
        },
        {
          "internalType": "uint256",
          "name": "",
          "type": "uint256"
        },
        {
          "internalType": "address",
          "name": "",
          "type": "address"
        }
      ],
      "payable": false,
      "stateMutability": "view",
      "type": "function"
    },
    {
      "constant": true,
      "inputs": [
        {
          "internalType": "address",
          "name": "_sender",
          "type": "address"
        }
      ],
      "name": "checkSuccess",
      "outputs": [
        {
          "internalType": "uint256",
          "name": "",
          "type": "uint256"
        },
        {
          "internalType": "uint256",
          "name": "",
          "type": "uint256"
        }
      ],
      "payable": false,
      "stateMutability": "view",
      "type": "function"
    },
    {
      "constant": true,
      "inputs": [
        {
          "internalType": "address",
          "name": "_sender",
          "type": "address"
        }
      ],
      "name": "calculateReputation",
      "outputs": [
        {
          "internalType": "uint256",
          "name": "",
          "type": "uint256"
        }
      ],
      "payable": false,
      "stateMutability": "view",
      "type": "function"
    }
  ],
  "bytecode": "0x608060405234801561001057600080fd5b506000620f42409050336000806101000a81548173ffffffffffffffffffffffffffffffffffffffff021916908373ffffffffffffffffffffffffffffffffffffffff16021790555080600560008060009054906101000a900473ffffffffffffffffffffffffffffffffffffffff1673ffffffffffffffffffffffffffffffffffffffff1673ffffffffffffffffffffffffffffffffffffffff168152602001908152602001600020819055505061244c806100ce6000396000f3fe608060405234801561001057600080fd5b50600436106100a95760003560e01c80635f176b59116100715780635f176b591461018d578063826e2e51146101bd578063b29a8140146101ed578063c71bd24c1461021d578063e79bc33b1461024d578063f8b2cb4f14610281576100a9565b806327c06fd5146100ae57806331742fa7146100de578063412664ae1461010f57806354e2a2e41461013f57806356992fe21461015d575b600080fd5b6100c860048036036100c391908101906116d9565b6102b1565b6040516100d59190612170565b60405180910390f35b6100f860048036036100f391908101906116d9565b610395565b60405161010692919061218b565b60405180910390f35b61012960048036036101249190810190611702565b610421565b6040516101369190611eb4565b60405180910390f35b610147610588565b6040516101549190611e92565b60405180910390f35b610177600480360361017291908101906117a5565b610671565b6040516101849190611eb4565b60405180910390f35b6101a760048036036101a2919081019061173e565b6108a3565b6040516101b49190611eb4565b60405180910390f35b6101d760048036036101d291908101906117e6565b610964565b6040516101e49190611eb4565b60405180910390f35b61020760048036036102029190810190611702565b610d0e565b6040516102149190611eb4565b60405180910390f35b610237600480360361023291908101906117e6565b610f04565b6040516102449190611eb4565b60405180910390f35b610267600480360361026291908101906117a5565b6111db565b604051610278959493929190611ecf565b60405180910390f35b61029b600480360361029691908101906116d9565b6113ad565b6040516102a89190612170565b60405180910390f35b600080600660008473ffffffffffffffffffffffffffffffffffffffff1673ffffffffffffffffffffffffffffffffffffffff168152602001908152602001600020541461038b57600660008373ffffffffffffffffffffffffffffffffffffffff1673ffffffffffffffffffffffffffffffffffffffff16815260200190815260200160002054600760008473ffffffffffffffffffffffffffffffffffffffff1673ffffffffffffffffffffffffffffffffffffffff168152602001908152602001600020546064028161038357fe5b049050610390565b600090505b919050565b600080600760008473ffffffffffffffffffffffffffffffffffffffff1673ffffffffffffffffffffffffffffffffffffffff16815260200190815260200160002054600660008573ffffffffffffffffffffffffffffffffffffffff1673ffffffffffffffffffffffffffffffffffffffff1681526020019081526020016000205491509150915091565b600081600560003373ffffffffffffffffffffffffffffffffffffffff1673ffffffffffffffffffffffffffffffffffffffff1681526020019081526020016000205410156104a8577ffd5de27667e5407df5be0b6efb7f86ae8c40433040399a5e4d36a46ccc50638d60405161049790612080565b60405180910390a160009050610582565b81600560003373ffffffffffffffffffffffffffffffffffffffff1673ffffffffffffffffffffffffffffffffffffffff1681526020019081526020016000206000828254039250508190555081600560008573ffffffffffffffffffffffffffffffffffffffff1673ffffffffffffffffffffffffffffffffffffffff168152602001908152602001600020600082825401925050819055507f26eb4a415baf730c62c6011b03653f5b8960baf7ad391bd18725e6caa4bfa4c933848460405161057593929190612126565b60405180910390a1600190505b92915050565b60606008805480602002602001604051908101604052809291908181526020016000905b82821015610668578382906000526020600020018054600181600116156101000203166002900480601f0160208091040260200160405190810160405280929190818152602001828054600181600116156101000203166002900480156106545780601f1061062957610100808354040283529160200191610654565b820191906000526020600020905b81548152906001019060200180831161063757829003601f168201915b5050505050815260200190600101906105ac565b50505050905090565b60008060009054906101000a900473ffffffffffffffffffffffffffffffffffffffff1673ffffffffffffffffffffffffffffffffffffffff163373ffffffffffffffffffffffffffffffffffffffff1614610702576040517f08c379a00000000000000000000000000000000000000000000000000000000081526004016106f990612106565b60405180910390fd5b6004826040516107129190611e7b565b90815260200160405180910390206000808201600061073191906113f6565b60018201600061074191906113f6565b6002820160009055600382016000610759919061143e565b60048201600090556005820160006101000a81549073ffffffffffffffffffffffffffffffffffffffff02191690556005820160146101000a81549060ff0219169055505060008090505b600880549050811015610899578280519060200120600882815481106107c657fe5b906000526020600020016040516107dd9190611e64565b6040518091039020141561088c5760008190505b60016008805490500381101561085f576008600182018154811061081157fe5b906000526020600020016008828154811061082857fe5b90600052602060002001908054600181600116156101000203166002900461085192919061145f565b5080806001019150506107f1565b5060086001600880549050038154811061087557fe5b90600052602060002001600061088b91906113f6565b5b80806001019150506107a4565b5060019050919050565b60008060009054906101000a900473ffffffffffffffffffffffffffffffffffffffff1673ffffffffffffffffffffffffffffffffffffffff163373ffffffffffffffffffffffffffffffffffffffff1614610934576040517f08c379a000000000000000000000000000000000000000000000000000000000815260040161092b90612106565b60405180910390fd5b836001908051906020019061094a9291906114e6565b508260028190555081600381905550600190509392505050565b6000600354600560003373ffffffffffffffffffffffffffffffffffffffff1673ffffffffffffffffffffffffffffffffffffffff1681526020019081526020016000205410156109ea576040517f08c379a00000000000000000000000000000000000000000000000000000000081526004016109e190611f90565b60405180910390fd5b600015156004866040516109fe9190611e7b565b908152602001604051809103902060050160149054906101000a900460ff16151514610a2957600080fd5b8380519060200120600486604051610a419190611e7b565b9081526020016040518091039020600101604051610a5f9190611e64565b6040518091039020148015610a94575082600486604051610a809190611e7b565b908152602001604051809103902060020154145b15610ccc57600160076000600488604051610aaf9190611e7b565b908152602001604051809103902060050160009054906101000a900473ffffffffffffffffffffffffffffffffffffffff1673ffffffffffffffffffffffffffffffffffffffff1673ffffffffffffffffffffffffffffffffffffffff168152602001908152602001600020600082825401925050819055506001600486604051610b3a9190611e7b565b908152602001604051809103902060050160146101000a81548160ff0219169083151502179055507f6d5fd9f24176dbb1bcb1e48cb31e1bbd5f7a6cc07a00d0d9ad19c0a31334941185834233604051610b979493929190611fd0565b60405180910390a1600254600486604051610bb29190611e7b565b908152602001604051809103902060040154014211158015610bff57506001600081548110610bdd57fe5b906000526020600020015482600081518110610bf557fe5b6020026020010151145b8015610c35575060018081548110610c1357fe5b906000526020600020015482600181518110610c2b57fe5b6020026020010151145b15610c8d57610c87600486604051610c4d9190611e7b565b908152602001604051809103902060050160009054906101000a900473ffffffffffffffffffffffffffffffffffffffff16600354610421565b50610cc3565b7ffd5de27667e5407df5be0b6efb7f86ae8c40433040399a5e4d36a46ccc50638d604051610cba90611fb0565b60405180910390a15b60019050610d06565b7ffd5de27667e5407df5be0b6efb7f86ae8c40433040399a5e4d36a46ccc50638d604051610cf990611f50565b60405180910390a1600090505b949350505050565b60008060009054906101000a900473ffffffffffffffffffffffffffffffffffffffff1673ffffffffffffffffffffffffffffffffffffffff163373ffffffffffffffffffffffffffffffffffffffff1614610d9f576040517f08c379a0000000000000000000000000000000000000000000000000000000008152600401610d9690612106565b60405180910390fd5b81600560008573ffffffffffffffffffffffffffffffffffffffff1673ffffffffffffffffffffffffffffffffffffffff168152602001908152602001600020541015610e24577ffd5de27667e5407df5be0b6efb7f86ae8c40433040399a5e4d36a46ccc50638d604051610e1390611f70565b60405180910390a160009050610efe565b81600560008573ffffffffffffffffffffffffffffffffffffffff1673ffffffffffffffffffffffffffffffffffffffff1681526020019081526020016000206000828254039250508190555081600560003373ffffffffffffffffffffffffffffffffffffffff1673ffffffffffffffffffffffffffffffffffffffff168152602001908152602001600020600082825401925050819055507f26eb4a415baf730c62c6011b03653f5b8960baf7ad391bd18725e6caa4bfa4c9833384604051610ef193929190612036565b60405180910390a1600190505b92915050565b600080600486604051610f179190611e7b565b908152602001604051809103902060000180546001816001161561010002031660029004905014610f7d576040517f08c379a0000000000000000000000000000000000000000000000000000000008152600401610f7490611f30565b60405180910390fd5b84600486604051610f8e9190611e7b565b90815260200160405180910390206000019080519060200190610fb2929190611533565b5083600486604051610fc49190611e7b565b90815260200160405180910390206001019080519060200190610fe8929190611533565b5082600486604051610ffa9190611e7b565b908152602001604051809103902060020181905550816004866040516110209190611e7b565b908152602001604051809103902060030190805190602001906110449291906114e6565b50426004866040516110569190611e7b565b9081526020016040518091039020600401819055503360048660405161107c9190611e7b565b908152602001604051809103902060050160006101000a81548173ffffffffffffffffffffffffffffffffffffffff021916908373ffffffffffffffffffffffffffffffffffffffff16021790555060006004866040516110dd9190611e7b565b908152602001604051809103902060050160146101000a81548160ff0219169083151502179055506008859080600181540180825580915050906001820390600052602060002001600090919290919091509080519060200190611142929190611533565b50506001600660003373ffffffffffffffffffffffffffffffffffffffff1673ffffffffffffffffffffffffffffffffffffffff168152602001908152602001600020600082825401925050819055507f6d5fd9f24176dbb1bcb1e48cb31e1bbd5f7a6cc07a00d0d9ad19c0a313349411858342336040516111c794939291906120a0565b60405180910390a160019050949350505050565b6060600060606000806004866040516111f49190611e7b565b90815260200160405180910390206001016004876040516112159190611e7b565b9081526020016040518091039020600201546004886040516112379190611e7b565b90815260200160405180910390206003016004896040516112589190611e7b565b90815260200160405180910390206004015460048a60405161127a9190611e7b565b908152602001604051809103902060050160009054906101000a900473ffffffffffffffffffffffffffffffffffffffff16848054600181600116156101000203166002900480601f0160208091040260200160405190810160405280929190818152602001828054600181600116156101000203166002900480156113415780601f1061131657610100808354040283529160200191611341565b820191906000526020600020905b81548152906001019060200180831161132457829003601f168201915b505050505094508280548060200260200160405190810160405280929190818152602001828054801561139357602002820191906000526020600020905b81548152602001906001019080831161137f575b505050505092509450945094509450945091939590929450565b6000600560008373ffffffffffffffffffffffffffffffffffffffff1673ffffffffffffffffffffffffffffffffffffffff168152602001908152602001600020549050919050565b50805460018160011615610100020316600290046000825580601f1061141c575061143b565b601f01602090049060005260206000209081019061143a91906115b3565b5b50565b508054600082559060005260206000209081019061145c91906115b3565b50565b828054600181600116156101000203166002900490600052602060002090601f016020900481019282601f1061149857805485556114d5565b828001600101855582156114d557600052602060002091601f016020900482015b828111156114d45782548255916001019190600101906114b9565b5b5090506114e291906115b3565b5090565b828054828255906000526020600020908101928215611522579160200282015b82811115611521578251825591602001919060010190611506565b5b50905061152f91906115b3565b5090565b828054600181600116156101000203166002900490600052602060002090601f016020900481019282601f1061157457805160ff19168380011785556115a2565b828001600101855582156115a2579182015b828111156115a1578251825591602001919060010190611586565b5b5090506115af91906115b3565b5090565b6115d591905b808211156115d15760008160009055506001016115b9565b5090565b90565b6000813590506115e7816123db565b92915050565b600082601f8301126115fe57600080fd5b813561161161160c826121e1565b6121b4565b9150818183526020840193506020810190508385602084028201111561163657600080fd5b60005b83811015611666578161164c88826116c4565b845260208401935060208301925050600181019050611639565b5050505092915050565b600082601f83011261168157600080fd5b813561169461168f82612209565b6121b4565b915080825260208301602083018583830111156116b057600080fd5b6116bb838284612388565b50505092915050565b6000813590506116d3816123f2565b92915050565b6000602082840312156116eb57600080fd5b60006116f9848285016115d8565b91505092915050565b6000806040838503121561171557600080fd5b6000611723858286016115d8565b9250506020611734858286016116c4565b9150509250929050565b60008060006060848603121561175357600080fd5b600084013567ffffffffffffffff81111561176d57600080fd5b611779868287016115ed565b935050602061178a868287016116c4565b925050604061179b868287016116c4565b9150509250925092565b6000602082840312156117b757600080fd5b600082013567ffffffffffffffff8111156117d157600080fd5b6117dd84828501611670565b91505092915050565b600080600080608085870312156117fc57600080fd5b600085013567ffffffffffffffff81111561181657600080fd5b61182287828801611670565b945050602085013567ffffffffffffffff81111561183f57600080fd5b61184b87828801611670565b935050604061185c878288016116c4565b925050606085013567ffffffffffffffff81111561187957600080fd5b611885878288016115ed565b91505092959194509250565b600061189d8383611ab5565b905092915050565b60006118b18383611e46565b60208301905092915050565b6118c681612352565b82525050565b6118d58161230a565b82525050565b60006118e68261226a565b6118f081856122b0565b93508360208202850161190285612235565b8060005b8581101561193e578484038952815161191f8582611891565b945061192a83612296565b925060208a01995050600181019050611906565b50829750879550505050505092915050565b600061195b82612275565b61196581856122c1565b935061197083612245565b8060005b838110156119a157815161198888826118a5565b9750611993836122a3565b925050600181019050611974565b5085935050505092915050565b6119b78161231c565b82525050565b6000815460018116600081146119da57600181146119ff57611a43565b607f60028304166119eb81876122d2565b955060ff1983168652808601935050611a43565b60028204611a0d81876122d2565b9550611a1885612255565b60005b82811015611a3a57815481890152600182019150602081019050611a1b565b82880195505050505b505092915050565b6000611a568261228b565b611a6081856122ee565b9350611a70818560208601612397565b611a79816123ca565b840191505092915050565b6000611a8f8261228b565b611a9981856122ff565b9350611aa9818560208601612397565b80840191505092915050565b6000611ac082612280565b611aca81856122dd565b9350611ada818560208601612397565b611ae3816123ca565b840191505092915050565b6000611afb6022836122ee565b91507f536869706d656e74207472616b696e67206e756d20616c72656164792065786960008301527f73740000000000000000000000000000000000000000000000000000000000006020830152604082019050919050565b6000611b616016836122ee565b91507f4572726f7220696e206974656d2f7175616e74697479000000000000000000006000830152602082019050919050565b6000611ba1601f836122ee565b91507f496e73756666696369656e742066756e647320666f72207265636f76657279006000830152602082019050919050565b6000611be1602a836122ee565b91507f4e6f20656e61756768206d6f6e657920746f20636f6d706c657465207468697360008301527f206f7065726174696f6e000000000000000000000000000000000000000000006020830152604082019050919050565b6000611c476029836122ee565b91507f5061796d656e74206e6f7420747269676765726564206173206372697465726960008301527f61206e6f74206d657400000000000000000000000000000000000000000000006020830152604082019050919050565b6000611cad600d836122ee565b91507f4974656d207265636569766564000000000000000000000000000000000000006000830152602082019050919050565b6000611ced600f836122ee565b91507f46756e6473207265636f766572656400000000000000000000000000000000006000830152602082019050919050565b6000611d2d6022836122ee565b91507f496e73756666696369656e742066756e647320746f2073656e64207061796d6560008301527f6e740000000000000000000000000000000000000000000000000000000000006020830152604082019050919050565b6000611d93600c836122ee565b91507f4974656d207368697070656400000000000000000000000000000000000000006000830152602082019050919050565b6000611dd3600d836122ee565b91507f4e6f74207468652061646d696e000000000000000000000000000000000000006000830152602082019050919050565b6000611e13600c836122ee565b91507f5061796d656e742073656e7400000000000000000000000000000000000000006000830152602082019050919050565b611e4f81612348565b82525050565b611e5e81612348565b82525050565b6000611e7082846119bd565b915081905092915050565b6000611e878284611a84565b915081905092915050565b60006020820190508181036000830152611eac81846118db565b905092915050565b6000602082019050611ec960008301846119ae565b92915050565b600060a0820190508181036000830152611ee98188611a4b565b9050611ef86020830187611e55565b8181036040830152611f0a8186611950565b9050611f196060830185611e55565b611f2660808301846118cc565b9695505050505050565b60006020820190508181036000830152611f4981611aee565b9050919050565b60006020820190508181036000830152611f6981611b54565b9050919050565b60006020820190508181036000830152611f8981611b94565b9050919050565b60006020820190508181036000830152611fa981611bd4565b9050919050565b60006020820190508181036000830152611fc981611c3a565b9050919050565b600060a0820190508181036000830152611fe981611ca0565b90508181036020830152611ffd8187611a4b565b905081810360408301526120118186611950565b90506120206060830185611e55565b61202d60808301846118bd565b95945050505050565b6000608082019050818103600083015261204f81611ce0565b905061205e60208301866118cc565b61206b60408301856118bd565b6120786060830184611e55565b949350505050565b6000602082019050818103600083015261209981611d20565b9050919050565b600060a08201905081810360008301526120b981611d86565b905081810360208301526120cd8187611a4b565b905081810360408301526120e18186611950565b90506120f06060830185611e55565b6120fd60808301846118bd565b95945050505050565b6000602082019050818103600083015261211f81611dc6565b9050919050565b6000608082019050818103600083015261213f81611e06565b905061214e60208301866118bd565b61215b60408301856118cc565b6121686060830184611e55565b949350505050565b60006020820190506121856000830184611e55565b92915050565b60006040820190506121a06000830185611e55565b6121ad6020830184611e55565b9392505050565b6000604051905081810181811067ffffffffffffffff821117156121d757600080fd5b8060405250919050565b600067ffffffffffffffff8211156121f857600080fd5b602082029050602081019050919050565b600067ffffffffffffffff82111561222057600080fd5b601f19601f8301169050602081019050919050565b6000819050602082019050919050565b6000819050602082019050919050565b60008190508160005260206000209050919050565b600081519050919050565b600081519050919050565b600081519050919050565b600081519050919050565b6000602082019050919050565b6000602082019050919050565b600082825260208201905092915050565b600082825260208201905092915050565b600081905092915050565b600082825260208201905092915050565b600082825260208201905092915050565b600081905092915050565b600061231582612328565b9050919050565b60008115159050919050565b600073ffffffffffffffffffffffffffffffffffffffff82169050919050565b6000819050919050565b600061235d82612364565b9050919050565b600061236f82612376565b9050919050565b600061238182612328565b9050919050565b82818337600083830152505050565b60005b838110156123b557808201518184015260208101905061239a565b838111156123c4576000848401525b50505050565b6000601f19601f8301169050919050565b6123e48161230a565b81146123ef57600080fd5b50565b6123fb81612348565b811461240657600080fd5b5056fea365627a7a72315820a0b261abcf2b0f5816df2b1b665bf210eeaa36bfc74c9f6ba8077051baa736806c6578706572696d656e74616cf564736f6c63430005100040",
  "source": "\n\npragma solidity >=0.4.22 <0.9.0;\npragma experimental ABIEncoderV2;\n\n// contract to allow supply chain parties to track shipment of goods and automatically execute payment in tokens\ncontract Tracking {\n    \n    address admin;\n    uint[] contractLocation; // array containing lat & long\n    uint contractLeadTime; // in seconds\n    uint contractPayment; // in tokens\n    mapping (string => Shipment) shipments;\n    mapping (address => uint) balances;\n    mapping (address => uint) totalShipped; // total number of shipments made\n    mapping (address => uint) successShipped; // number of shipments successfully completed\n    string[] shipmentsByTrackingNo;\n\n    struct Shipment {\n        string trackingNo;\n        string item;\n        uint quantity;\n        uint[] locationData;\n        uint timeStamp;\n        address sender;\n        bool received;\n    }\n    // events to display messages when certain transactions are executed\n    event Success(string _message, string trackingNo, uint[]\n                _locationData, uint _timeStamp, address _sender);\n\n    event Payment(string _message, address _from, address _to, uint\n                _amount);\n\n    event Failure(string _message);\n\n    // constructor - runs once when contract is deployed\n    // determine initial token supply upon contract deployment\n    constructor() public {\n        uint _initialTokenSupply = 1000000;\n        admin = msg.sender;\n        balances[admin] = _initialTokenSupply; // all tokens he ld by admin initially\n    }\n       \n    // modifier to allow only admin to execute a function\n    modifier onlyAdmin() {\n        require(msg.sender == admin, \"Not the admin\");\n        _;\n    }\n    // function to send tokens from one account to another\n    function sendToken(address _to, uint _amount) public returns (bool success) {\n        if (balances[msg.sender] < _amount) {\n            emit Failure('Insufficient funds to send payment');\n            return false;\n        }\n        balances[msg.sender] -= _amount;\n        balances[_to] += _amount;\n        emit Payment('Payment sent', msg.sender, _to, _amount);\n        return true;\n    }\n    // function to show token balance of an account\n    function getBalance(address _account) public view returns (uint _balance) {\n        return balances[_account];\n    }\n    // function to recover tokens from an account (can only be done by admin)\n    // in the event that the sendToken function gets abused\n    function recoverToken(address _from, uint _amount) onlyAdmin public returns (bool success) {\n        if (balances[_from] < _amount) {\n            emit Failure('Insufficient funds for recovery');\n            return false;\n        }\n        balances[_from] -= _amount;\n        balances[msg.sender] += _amount;\n        emit Payment('Funds recovered', _from, msg.sender, _amount);\n        return true;\n    }\n    // function to set contract parameters for next leg of shipment (can only be done by admin)\n    function setContractParameters(uint[] memory _location, uint _leadTime, uint _payment) onlyAdmin public returns (bool success) {\n        contractLocation = _location; // set next location that will receive shipment\n        contractLeadTime = _leadTime; // set acceptable lead time for next leg of shipment\n        contractPayment = _payment; // set payment amount for completing next leg of shipment\n        return true;\n    }\n    // function for party to input details of shipment that was sent\n    function sendShipment(string memory trackingNo, string memory _item, uint _quantity, uint[] memory _locationData) public returns (bool success) {\n        // require (contractLocation[0] != 0 || contractLocation[1] != 0 && contractLeadTime != 0 && contractPayment != 0, \"Set all the contract Parameters\");\n        require(bytes(shipments[trackingNo].trackingNo).length == 0, \"Shipment traking num already exist\");\n        shipments[trackingNo].trackingNo = trackingNo;\n        shipments[trackingNo].item = _item;\n        shipments[trackingNo].quantity = _quantity;\n        shipments[trackingNo].locationData = _locationData;\n        shipments[trackingNo].timeStamp = block.timestamp;\n        shipments[trackingNo].sender = msg.sender;\n        shipments[trackingNo].received = false;\n        shipmentsByTrackingNo.push(trackingNo);\n        totalShipped[msg.sender] += 1;\n        emit Success('Item shipped', trackingNo, _locationData, block.timestamp, msg.sender);\n        return true;\n    }\n    // function for party to input details of shipment that was received\n    function receiveShipment(string memory trackingNo, string memory _item, uint _quantity, uint[] memory _locationData) public returns (bool success) {\n        require (balances[msg.sender] >= contractPayment, \"No enaugh money to complete this operation\");\n        require (shipments[trackingNo].received == false);\n        // check that item and quantity received match item and quantity shipped\n        if (keccak256(bytes(shipments[trackingNo].item)) == keccak256(bytes(_item)) && shipments[trackingNo].quantity == _quantity) {\n            successShipped[shipments[trackingNo].sender] += 1;\n            shipments[trackingNo].received = true;\n            emit Success('Item received', trackingNo, _locationData, block.timestamp, msg.sender);\n            // execute payment if item received on time and location correct\n            if (block.timestamp <= shipments[trackingNo].timeStamp + contractLeadTime && _locationData[0] == contractLocation[0] && _locationData[1] == contractLocation[1]) {\n                sendToken(shipments[trackingNo].sender, contractPayment);\n            }\n            else {\n                emit Failure('Payment not triggered as criteria not met');\n            }\n            return true;\n        }\n        else {\n            emit Failure('Error in item/quantity');\n                return false;\n        }\n    }\n    // function to remove details of shipment from database (can only be done by admin)\n    function deleteShipment(string memory trackingNo) onlyAdmin public returns (bool success) {\n        delete shipments[trackingNo];\n        // dlete entry from array and shorten array\n        for (uint i = 0; i < shipmentsByTrackingNo.length; i++) {\n            //keccak256(portcheck) == keccak256(\"signed\")\n            if (keccak256(bytes(shipmentsByTrackingNo[i])) == keccak256(bytes(trackingNo))) {\n                for (uint index = i; index < shipmentsByTrackingNo.length - 1; index++) {\n                    shipmentsByTrackingNo[index] =\n                    shipmentsByTrackingNo[index + 1];\n                }\n                delete shipmentsByTrackingNo[shipmentsByTrackingNo.length - 1];\n                \n            }\n        }\n        return true;\n    }\n    function allShipment() public view returns (string[] memory) {\n        return shipmentsByTrackingNo;\n    }\n    // function to display details of shipment\n    function checkShipment(string memory trackingNo) public view returns (string memory, uint, uint[] memory, uint, address) {\n        return (\n                shipments[trackingNo].item, \n                shipments[trackingNo].quantity, \n                shipments[trackingNo].locationData,\n                shipments[trackingNo].timeStamp, \n                shipments[trackingNo].sender\n                );\n    }\n    // function to display number of successfully completed shipments and total shipments for a party\n    function checkSuccess(address _sender) public view returns (uint, uint) {\n        return (successShipped[_sender], totalShipped[_sender]);\n    }\n    // function to calculate reputation score of a party (percentage of successfully completed shipments)\n    function calculateReputation(address _sender) public view returns (uint) {\n        if (totalShipped[_sender] != 0) {\n            return (100 * successShipped[_sender] / totalShipped[_sender]);\n        }\n        else {\n            return 0;\n        }\n    }\n}",
  "sourcePath": "/home/toor/projets/Blockchain/Blockchain_Supply_chain_management/contracts/Tracking.sol",
  "compiler": {
    "name": "solc",
    "version": "0.5.16+commit.9c3226ce.Emscripten.clang"
  },
  "schemaVersion": "3.4.6",
  "updatedAt": "2022-07-07T19:17:17.712Z",
  "networkType": "ethereum",
  "devdoc": {
    "methods": {}
  },
  "userdoc": {
    "methods": {}
  }
}